{
  "_format": "hh-sol-artifact-1",
  "contractName": "PermissionedPrivacy",
  "sourceName": "contracts/PermissionedPrivacy.sol",
  "abi": [
    {
      "anonymous": false,
      "inputs": [
        {
          "indexed": true,
          "internalType": "uint256",
          "name": "_publicID",
          "type": "uint256"
        },
        {
          "indexed": false,
          "internalType": "uint256",
          "name": "_hashOfRecord",
          "type": "uint256"
        }
      ],
      "name": "CreatedTransaction",
      "type": "event"
    },
    {
      "anonymous": false,
      "inputs": [
        {
          "indexed": true,
          "internalType": "address",
          "name": "previousOwner",
          "type": "address"
        },
        {
          "indexed": true,
          "internalType": "address",
          "name": "newOwner",
          "type": "address"
        }
      ],
      "name": "OwnershipTransferred",
      "type": "event"
    },
    {
      "anonymous": false,
      "inputs": [
        {
          "indexed": false,
          "internalType": "uint256",
          "name": "_left",
          "type": "uint256"
        },
        {
          "indexed": false,
          "internalType": "uint256",
          "name": "_right",
          "type": "uint256"
        }
      ],
      "name": "RegisteredHashOfScan",
      "type": "event"
    },
    {
      "anonymous": false,
      "inputs": [
        {
          "indexed": true,
          "internalType": "uint256",
          "name": "_transactionID",
          "type": "uint256"
        },
        {
          "indexed": false,
          "internalType": "string",
          "name": "_record",
          "type": "string"
        }
      ],
      "name": "StoredRecordLocation",
      "type": "event"
    },
    {
      "inputs": [
        {
          "internalType": "uint256",
          "name": "_publicID",
          "type": "uint256"
        },
        {
          "internalType": "uint256",
          "name": "_hashOfRecord",
          "type": "uint256"
        }
      ],
      "name": "addTransaction",
      "outputs": [],
      "stateMutability": "nonpayable",
      "type": "function"
    },
    {
      "inputs": [
        {
          "internalType": "uint256[]",
          "name": "_hashOfScans",
          "type": "uint256[]"
        }
      ],
      "name": "batchRegisterHashOfScan",
      "outputs": [],
      "stateMutability": "nonpayable",
      "type": "function"
    },
    {
      "inputs": [],
      "name": "getHashOfScans",
      "outputs": [
        {
          "components": [
            {
              "internalType": "uint256",
              "name": "left",
              "type": "uint256"
            },
            {
              "internalType": "uint256",
              "name": "right",
              "type": "uint256"
            }
          ],
          "internalType": "struct PermissionedPrivacy.hashOfScan[]",
          "name": "",
          "type": "tuple[]"
        }
      ],
      "stateMutability": "view",
      "type": "function"
    },
    {
      "inputs": [
        {
          "internalType": "uint256",
          "name": "_publicID",
          "type": "uint256"
        }
      ],
      "name": "getTransactions",
      "outputs": [
        {
          "internalType": "uint256[]",
          "name": "",
          "type": "uint256[]"
        }
      ],
      "stateMutability": "view",
      "type": "function"
    },
    {
      "inputs": [],
      "name": "owner",
      "outputs": [
        {
          "internalType": "address",
          "name": "",
          "type": "address"
        }
      ],
      "stateMutability": "view",
      "type": "function"
    },
    {
      "inputs": [
        {
          "internalType": "uint256",
          "name": "_left",
          "type": "uint256"
        },
        {
          "internalType": "uint256",
          "name": "_right",
          "type": "uint256"
        }
      ],
      "name": "registerHashOfScan",
      "outputs": [],
      "stateMutability": "nonpayable",
      "type": "function"
    },
    {
      "inputs": [],
      "name": "renounceOwnership",
      "outputs": [],
      "stateMutability": "nonpayable",
      "type": "function"
    },
    {
      "inputs": [
        {
          "internalType": "uint256",
          "name": "_transactionID",
          "type": "uint256"
        }
      ],
      "name": "retrieveRecordLocation",
      "outputs": [
        {
          "internalType": "string",
          "name": "",
          "type": "string"
        }
      ],
      "stateMutability": "view",
      "type": "function"
    },
    {
      "inputs": [
        {
          "internalType": "uint256",
          "name": "_transactionID",
          "type": "uint256"
        },
        {
          "internalType": "string",
          "name": "_record",
          "type": "string"
        }
      ],
      "name": "storeRecordLocation",
      "outputs": [],
      "stateMutability": "nonpayable",
      "type": "function"
    },
    {
      "inputs": [
        {
          "internalType": "address",
          "name": "newOwner",
          "type": "address"
        }
      ],
      "name": "transferOwnership",
      "outputs": [],
      "stateMutability": "nonpayable",
      "type": "function"
    }
  ],
  "bytecode": "0x608060405234801561001057600080fd5b5061002d61002261003260201b60201c565b61003a60201b60201c565b6100fe565b600033905090565b60008060009054906101000a900473ffffffffffffffffffffffffffffffffffffffff169050816000806101000a81548173ffffffffffffffffffffffffffffffffffffffff021916908373ffffffffffffffffffffffffffffffffffffffff1602179055508173ffffffffffffffffffffffffffffffffffffffff168173ffffffffffffffffffffffffffffffffffffffff167f8be0079c531659141344cd1fd0a4f28419497f9722a3daafe3b4186f6b6457e060405160405180910390a35050565b61176c8061010d6000396000f3fe608060405234801561001057600080fd5b506004361061009e5760003560e01c8063715018a611610066578063715018a6146101575780638da5cb5b14610161578063d2a29a531461017f578063dcf80fdb1461019d578063f2fde38b146101b95761009e565b806315619f58146100a357806331236a4f146100bf5780633c7f63e7146100db5780635742177c146100f757806368e070ed14610127575b600080fd5b6100bd60048036038101906100b89190610caf565b6101d5565b005b6100d960048036038101906100d49190610d71565b61044f565b005b6100f560048036038101906100f09190610d71565b610550565b005b610111600480360381019061010c9190610cf4565b6105c6565b60405161011e91906110d3565b60405180910390f35b610141600480360381019061013c9190610cf4565b610631565b60405161014e91906110f5565b60405180910390f35b61015f61073c565b005b6101696107c4565b6040516101769190611096565b60405180910390f35b6101876107ed565b60405161019491906110b1565b60405180910390f35b6101b760048036038101906101b29190610d1d565b610860565b005b6101d360048036038101906101ce9190610c86565b610943565b005b6101dd610a3b565b73ffffffffffffffffffffffffffffffffffffffff166101fb6107c4565b73ffffffffffffffffffffffffffffffffffffffff1614610251576040517f08c379a000000000000000000000000000000000000000000000000000000000815260040161024890611177565b60405180910390fd5b600082829050905060006002826102689190611456565b146102a8576040517f08c379a000000000000000000000000000000000000000000000000000000000815260040161029f906111b7565b60405180910390fd5b60005b8181101561044957600160405180604001604052808686858181106102f9577f4e487b7100000000000000000000000000000000000000000000000000000000600052603260045260246000fd5b9050602002013581526020018686600186610314919061131f565b81811061034a577f4e487b7100000000000000000000000000000000000000000000000000000000600052603260045260246000fd5b9050602002013581525090806001815401808255809150506001900390600052602060002090600202016000909190919091506000820151816000015560208201518160010155505083836001836103a2919061131f565b8181106103d8577f4e487b7100000000000000000000000000000000000000000000000000000000600052603260045260246000fd5b905060200201356002600086868581811061041c577f4e487b7100000000000000000000000000000000000000000000000000000000600052603260045260246000fd5b90506020020135815260200190815260200160002081905550600281610442919061131f565b90506102ab565b50505050565b80600260008481526020019081526020016000205414156104a5576040517f08c379a000000000000000000000000000000000000000000000000000000000815260040161049c90611197565b60405180910390fd5b60016040518060400160405280848152602001838152509080600181540180825580915050600190039060005260206000209060020201600090919091909150600082015181600001556020820151816001015550508060026000848152602001908152602001600020819055507f9d53e2ba49b8f61a740617693efca491f3e433c56b863c379d3639808254de1b82826040516105449291906111f2565b60405180910390a15050565b60036000838152602001908152602001600020819080600181540180825580915050600190039060005260206000200160009091909190915055817f39b5c51d59349a328554c31662c74a3e17978aa61f0849cb1c7bd42dc564ac1f826040516105ba91906111d7565b60405180910390a25050565b60606003600083815260200190815260200160002080548060200260200160405190810160405280929190818152602001828054801561062557602002820191906000526020600020905b815481526020019060010190808311610611575b50505050509050919050565b60606000600460008481526020019081526020016000208054610653906113f3565b80601f016020809104026020016040519081016040528092919081815260200182805461067f906113f3565b80156106cc5780601f106106a1576101008083540402835291602001916106cc565b820191906000526020600020905b8154815290600101906020018083116106af57829003601f168201915b50505050509050604051806020016040528060008152508051906020012081805190602001201415610733576040517f08c379a000000000000000000000000000000000000000000000000000000000815260040161072a90611117565b60405180910390fd5b80915050919050565b610744610a3b565b73ffffffffffffffffffffffffffffffffffffffff166107626107c4565b73ffffffffffffffffffffffffffffffffffffffff16146107b8576040517f08c379a00000000000000000000000000000000000000000000000000000000081526004016107af90611177565b60405180910390fd5b6107c26000610a43565b565b60008060009054906101000a900473ffffffffffffffffffffffffffffffffffffffff16905090565b60606001805480602002602001604051908101604052809291908181526020016000905b8282101561085757838290600052602060002090600202016040518060400160405290816000820154815260200160018201548152505081526020019060010190610811565b50505050905090565b604051806020016040528060008152508051906020012060046000848152602001908152602001600020604051610897919061107f565b6040518091039020146108df576040517f08c379a00000000000000000000000000000000000000000000000000000000081526004016108d690611157565b60405180910390fd5b80600460008481526020019081526020016000209080519060200190610906929190610b07565b50817f80364bf06579003567e39320700bffabd558c3278c0c47c5f00ed103f44c81a98260405161093791906110f5565b60405180910390a25050565b61094b610a3b565b73ffffffffffffffffffffffffffffffffffffffff166109696107c4565b73ffffffffffffffffffffffffffffffffffffffff16146109bf576040517f08c379a00000000000000000000000000000000000000000000000000000000081526004016109b690611177565b60405180910390fd5b600073ffffffffffffffffffffffffffffffffffffffff168173ffffffffffffffffffffffffffffffffffffffff161415610a2f576040517f08c379a0000000000000000000000000000000000000000000000000000000008152600401610a2690611137565b60405180910390fd5b610a3881610a43565b50565b600033905090565b60008060009054906101000a900473ffffffffffffffffffffffffffffffffffffffff169050816000806101000a81548173ffffffffffffffffffffffffffffffffffffffff021916908373ffffffffffffffffffffffffffffffffffffffff1602179055508173ffffffffffffffffffffffffffffffffffffffff168173ffffffffffffffffffffffffffffffffffffffff167f8be0079c531659141344cd1fd0a4f28419497f9722a3daafe3b4186f6b6457e060405160405180910390a35050565b828054610b13906113f3565b90600052602060002090601f016020900481019282610b355760008555610b7c565b82601f10610b4e57805160ff1916838001178555610b7c565b82800160010185558215610b7c579182015b82811115610b7b578251825591602001919060010190610b60565b5b509050610b899190610b8d565b5090565b5b80821115610ba6576000816000905550600101610b8e565b5090565b6000610bbd610bb884611240565b61121b565b905082815260208101848484011115610bd557600080fd5b610be08482856113b1565b509392505050565b600081359050610bf781611708565b92915050565b60008083601f840112610c0f57600080fd5b8235905067ffffffffffffffff811115610c2857600080fd5b602083019150836020820283011115610c4057600080fd5b9250929050565b600082601f830112610c5857600080fd5b8135610c68848260208601610baa565b91505092915050565b600081359050610c808161171f565b92915050565b600060208284031215610c9857600080fd5b6000610ca684828501610be8565b91505092915050565b60008060208385031215610cc257600080fd5b600083013567ffffffffffffffff811115610cdc57600080fd5b610ce885828601610bfd565b92509250509250929050565b600060208284031215610d0657600080fd5b6000610d1484828501610c71565b91505092915050565b60008060408385031215610d3057600080fd5b6000610d3e85828601610c71565b925050602083013567ffffffffffffffff811115610d5b57600080fd5b610d6785828601610c47565b9150509250929050565b60008060408385031215610d8457600080fd5b6000610d9285828601610c71565b9250506020610da385828601610c71565b9150509250929050565b6000610db98383611032565b60408301905092915050565b6000610dd18383611061565b60208301905092915050565b610de681611375565b82525050565b6000610df7826112a6565b610e0181856112e1565b9350610e0c83611271565b8060005b83811015610e3d578151610e248882610dad565b9750610e2f836112c7565b925050600181019050610e10565b5085935050505092915050565b6000610e55826112b1565b610e5f81856112f2565b9350610e6a83611281565b8060005b83811015610e9b578151610e828882610dc5565b9750610e8d836112d4565b925050600181019050610e6e565b5085935050505092915050565b60008154610eb5816113f3565b610ebf8186611303565b94506001821660008114610eda5760018114610eeb57610f1e565b60ff19831686528186019350610f1e565b610ef485611291565b60005b83811015610f1657815481890152600182019150602081019050610ef7565b838801955050505b50505092915050565b6000610f32826112bc565b610f3c818561130e565b9350610f4c8185602086016113c0565b610f5581611543565b840191505092915050565b6000610f6d60248361130e565b9150610f7882611554565b604082019050919050565b6000610f9060268361130e565b9150610f9b826115a3565b604082019050919050565b6000610fb360228361130e565b9150610fbe826115f2565b604082019050919050565b6000610fd660208361130e565b9150610fe182611641565b602082019050919050565b6000610ff960288361130e565b91506110048261166a565b604082019050919050565b600061101c603a8361130e565b9150611027826116b9565b604082019050919050565b6040820160008201516110486000850182611061565b50602082015161105b6020850182611061565b50505050565b61106a816113a7565b82525050565b611079816113a7565b82525050565b600061108b8284610ea8565b915081905092915050565b60006020820190506110ab6000830184610ddd565b92915050565b600060208201905081810360008301526110cb8184610dec565b905092915050565b600060208201905081810360008301526110ed8184610e4a565b905092915050565b6000602082019050818103600083015261110f8184610f27565b905092915050565b6000602082019050818103600083015261113081610f60565b9050919050565b6000602082019050818103600083015261115081610f83565b9050919050565b6000602082019050818103600083015261117081610fa6565b9050919050565b6000602082019050818103600083015261119081610fc9565b9050919050565b600060208201905081810360008301526111b081610fec565b9050919050565b600060208201905081810360008301526111d08161100f565b9050919050565b60006020820190506111ec6000830184611070565b92915050565b60006040820190506112076000830185611070565b6112146020830184611070565b9392505050565b6000611225611236565b90506112318282611425565b919050565b6000604051905090565b600067ffffffffffffffff82111561125b5761125a611514565b5b61126482611543565b9050602081019050919050565b6000819050602082019050919050565b6000819050602082019050919050565b60008190508160005260206000209050919050565b600081519050919050565b600081519050919050565b600081519050919050565b6000602082019050919050565b6000602082019050919050565b600082825260208201905092915050565b600082825260208201905092915050565b600081905092915050565b600082825260208201905092915050565b600061132a826113a7565b9150611335836113a7565b9250827fffffffffffffffffffffffffffffffffffffffffffffffffffffffffffffffff0382111561136a57611369611487565b5b828201905092915050565b600061138082611387565b9050919050565b600073ffffffffffffffffffffffffffffffffffffffff82169050919050565b6000819050919050565b82818337600083830152505050565b60005b838110156113de5780820151818401526020810190506113c3565b838111156113ed576000848401525b50505050565b6000600282049050600182168061140b57607f821691505b6020821081141561141f5761141e6114e5565b5b50919050565b61142e82611543565b810181811067ffffffffffffffff8211171561144d5761144c611514565b5b80604052505050565b6000611461826113a7565b915061146c836113a7565b92508261147c5761147b6114b6565b5b828206905092915050565b7f4e487b7100000000000000000000000000000000000000000000000000000000600052601160045260246000fd5b7f4e487b7100000000000000000000000000000000000000000000000000000000600052601260045260246000fd5b7f4e487b7100000000000000000000000000000000000000000000000000000000600052602260045260246000fd5b7f4e487b7100000000000000000000000000000000000000000000000000000000600052604160045260246000fd5b6000601f19601f8301169050919050565b7f546865206c6f636174696f6e206f6620746865207265636f726420697320656d60008201527f7074792e00000000000000000000000000000000000000000000000000000000602082015250565b7f4f776e61626c653a206e6577206f776e657220697320746865207a65726f206160008201527f6464726573730000000000000000000000000000000000000000000000000000602082015250565b7f54686174207472616e73616374696f6e494420616c726561647920657869737460008201527f732e000000000000000000000000000000000000000000000000000000000000602082015250565b7f4f776e61626c653a2063616c6c6572206973206e6f7420746865206f776e6572600082015250565b7f546861742068617368206f66207363616e20697320616c72656164792072656760008201527f697374657265642e000000000000000000000000000000000000000000000000602082015250565b7f456163682048617368204f66205363616e206d75737420636f6e7461696e207460008201527f6865204d532032353620616e64204c532032353620626974732e000000000000602082015250565b61171181611375565b811461171c57600080fd5b50565b611728816113a7565b811461173357600080fd5b5056fea264697066735822122039618773aee9cd0e08c6f6a7fa2cf5412cdf8f62fc971327da508fe8e2864e1964736f6c63430008040033",
  "linkReferences": {},
  "deployedLinkReferences": {}
}