{
    "_format": "hh-sol-artifact-1",
    "contractName": "PrivacyPreserving",
    "sourceName": "contracts/PrivacyPreserving.sol",
    "abi": [
        {
            "anonymous": false,
            "inputs": [
                {
                    "indexed": true,
                    "internalType": "uint256",
                    "name": "_publicID",
                    "type": "uint256"
                },
                {
                    "indexed": false,
                    "internalType": "uint256",
                    "name": "_hashOfRecord",
                    "type": "uint256"
                }
            ],
            "name": "CreatedTransaction",
            "type": "event"
        },
        {
            "anonymous": false,
            "inputs": [
                {
                    "indexed": false,
                    "internalType": "uint256",
                    "name": "_hashofScan",
                    "type": "uint256"
                }
            ],
            "name": "RegisteredHashOfScan",
            "type": "event"
        },
        {
            "anonymous": false,
            "inputs": [
                {
                    "indexed": true,
                    "internalType": "uint256",
                    "name": "_transactionID",
                    "type": "uint256"
                },
                {
                    "indexed": false,
                    "internalType": "string",
                    "name": "_record",
                    "type": "string"
                }
            ],
            "name": "StoredRecordLocation",
            "type": "event"
        },
        {
            "inputs": [
                {
                    "internalType": "uint256",
                    "name": "_publicID",
                    "type": "uint256"
                },
                {
                    "internalType": "uint256",
                    "name": "_hashOfRecord",
                    "type": "uint256"
                }
            ],
            "name": "addTransaction",
            "outputs": [],
            "stateMutability": "nonpayable",
            "type": "function"
        },
        {
            "inputs": [],
            "name": "getHashOfScans",
            "outputs": [
                {
                    "internalType": "uint256[]",
                    "name": "",
                    "type": "uint256[]"
                }
            ],
            "stateMutability": "view",
            "type": "function"
        },
        {
            "inputs": [],
            "name": "getTransactions",
            "outputs": [
                {
                    "components": [
                        {
                            "internalType": "uint256",
                            "name": "publicID",
                            "type": "uint256"
                        },
                        {
                            "internalType": "uint256",
                            "name": "hashOfRecord",
                            "type": "uint256"
                        }
                    ],
                    "internalType": "struct PrivacyPreserving.Transaction[]",
                    "name": "",
                    "type": "tuple[]"
                }
            ],
            "stateMutability": "view",
            "type": "function"
        },
        {
            "inputs": [
                {
                    "internalType": "uint256",
                    "name": "_hashOfScan",
                    "type": "uint256"
                }
            ],
            "name": "registerHashOfScan",
            "outputs": [],
            "stateMutability": "nonpayable",
            "type": "function"
        },
        {
            "inputs": [
                {
                    "internalType": "uint256",
                    "name": "_transactionID",
                    "type": "uint256"
                }
            ],
            "name": "retrieveRecordLocation",
            "outputs": [
                {
                    "internalType": "string",
                    "name": "",
                    "type": "string"
                }
            ],
            "stateMutability": "view",
            "type": "function"
        },
        {
            "inputs": [
                {
                    "internalType": "uint256",
                    "name": "_transactionID",
                    "type": "uint256"
                },
                {
                    "internalType": "string",
                    "name": "_record",
                    "type": "string"
                }
            ],
            "name": "storeRecordLocation",
            "outputs": [],
            "stateMutability": "nonpayable",
            "type": "function"
        }
    ],
    "bytecode": "0x608060405234801561001057600080fd5b50610dee806100206000396000f3fe608060405234801561001057600080fd5b50600436106100625760003560e01c80633c7f63e7146100675780634b43bb831461008357806368e070ed1461009f57806383920e90146100cf578063d2a29a53146100ed578063dcf80fdb1461010b575b600080fd5b610081600480360381019061007c9190610704565b610127565b005b61009d60048036038101906100989190610687565b6101b9565b005b6100b960048036038101906100b49190610687565b6102ae565b6040516100c691906109f5565b60405180910390f35b6100d76103b9565b6040516100e491906109b1565b60405180910390f35b6100f561042c565b60405161010291906109d3565b60405180910390f35b610125600480360381019061012091906106b0565b610484565b005b6002604051806040016040528084815260200183815250908060018154018082558091505060019003906000526020600020906002020160009091909190915060008201518160000155602082015181600101555050817f39b5c51d59349a328554c31662c74a3e17978aa61f0849cb1c7bd42dc564ac1f826040516101ad9190610a77565b60405180910390a25050565b600015156001600083815260200190815260200160002060009054906101000a900460ff16151514610220576040517f08c379a000000000000000000000000000000000000000000000000000000000815260040161021790610a57565b60405180910390fd5b6000819080600181540180825580915050600190039060005260206000200160009091909190915055600180600083815260200190815260200160002060006101000a81548160ff0219169083151502179055507f5272e99080b81bb2f603c256f2149949da6b47f9c73b0cbab59d44dfb743c5af816040516102a39190610a77565b60405180910390a150565b606060006003600084815260200190815260200160002080546102d090610be2565b80601f01602080910402602001604051908101604052809291908181526020018280546102fc90610be2565b80156103495780601f1061031e57610100808354040283529160200191610349565b820191906000526020600020905b81548152906001019060200180831161032c57829003601f168201915b505050505090506040518060200160405280600081525080519060200120818051906020012014156103b0576040517f08c379a00000000000000000000000000000000000000000000000000000000081526004016103a790610a17565b60405180910390fd5b80915050919050565b60606002805480602002602001604051908101604052809291908181526020016000905b82821015610423578382906000526020600020906002020160405180604001604052908160008201548152602001600182015481525050815260200190600101906103dd565b50505050905090565b6060600080548060200260200160405190810160405280929190818152602001828054801561047a57602002820191906000526020600020905b815481526020019060010190808311610466575b5050505050905090565b6040518060200160405280600081525080519060200120600360008481526020019081526020016000206040516104bb919061099a565b604051809103902014610503576040517f08c379a00000000000000000000000000000000000000000000000000000000081526004016104fa90610a37565b60405180910390fd5b8060036000848152602001908152602001600020908051906020019061052a929190610567565b50817f80364bf06579003567e39320700bffabd558c3278c0c47c5f00ed103f44c81a98260405161055b91906109f5565b60405180910390a25050565b82805461057390610be2565b90600052602060002090601f01602090048101928261059557600085556105dc565b82601f106105ae57805160ff19168380011785556105dc565b828001600101855582156105dc579182015b828111156105db5782518255916020019190600101906105c0565b5b5090506105e991906105ed565b5090565b5b808211156106065760008160009055506001016105ee565b5090565b600061061d61061884610ab7565b610a92565b90508281526020810184848401111561063557600080fd5b610640848285610ba0565b509392505050565b600082601f83011261065957600080fd5b813561066984826020860161060a565b91505092915050565b60008135905061068181610da1565b92915050565b60006020828403121561069957600080fd5b60006106a784828501610672565b91505092915050565b600080604083850312156106c357600080fd5b60006106d185828601610672565b925050602083013567ffffffffffffffff8111156106ee57600080fd5b6106fa85828601610648565b9150509250929050565b6000806040838503121561071757600080fd5b600061072585828601610672565b925050602061073685828601610672565b9150509250929050565b600061074c838361094d565b60408301905092915050565b6000610764838361097c565b60208301905092915050565b600061077b82610b1d565b6107858185610b58565b935061079083610ae8565b8060005b838110156107c15781516107a88882610740565b97506107b383610b3e565b925050600181019050610794565b5085935050505092915050565b60006107d982610b28565b6107e38185610b69565b93506107ee83610af8565b8060005b8381101561081f5781516108068882610758565b975061081183610b4b565b9250506001810190506107f2565b5085935050505092915050565b6000815461083981610be2565b6108438186610b7a565b9450600182166000811461085e576001811461086f576108a2565b60ff198316865281860193506108a2565b61087885610b08565b60005b8381101561089a5781548189015260018201915060208101905061087b565b838801955050505b50505092915050565b60006108b682610b33565b6108c08185610b85565b93506108d0818560208601610baf565b6108d981610ca3565b840191505092915050565b60006108f1602483610b85565b91506108fc82610cb4565b604082019050919050565b6000610914602283610b85565b915061091f82610d03565b604082019050919050565b6000610937602883610b85565b915061094282610d52565b604082019050919050565b604082016000820151610963600085018261097c565b506020820151610976602085018261097c565b50505050565b61098581610b96565b82525050565b61099481610b96565b82525050565b60006109a6828461082c565b915081905092915050565b600060208201905081810360008301526109cb8184610770565b905092915050565b600060208201905081810360008301526109ed81846107ce565b905092915050565b60006020820190508181036000830152610a0f81846108ab565b905092915050565b60006020820190508181036000830152610a30816108e4565b9050919050565b60006020820190508181036000830152610a5081610907565b9050919050565b60006020820190508181036000830152610a708161092a565b9050919050565b6000602082019050610a8c600083018461098b565b92915050565b6000610a9c610aad565b9050610aa88282610c14565b919050565b6000604051905090565b600067ffffffffffffffff821115610ad257610ad1610c74565b5b610adb82610ca3565b9050602081019050919050565b6000819050602082019050919050565b6000819050602082019050919050565b60008190508160005260206000209050919050565b600081519050919050565b600081519050919050565b600081519050919050565b6000602082019050919050565b6000602082019050919050565b600082825260208201905092915050565b600082825260208201905092915050565b600081905092915050565b600082825260208201905092915050565b6000819050919050565b82818337600083830152505050565b60005b83811015610bcd578082015181840152602081019050610bb2565b83811115610bdc576000848401525b50505050565b60006002820490506001821680610bfa57607f821691505b60208210811415610c0e57610c0d610c45565b5b50919050565b610c1d82610ca3565b810181811067ffffffffffffffff82111715610c3c57610c3b610c74565b5b80604052505050565b7f4e487b7100000000000000000000000000000000000000000000000000000000600052602260045260246000fd5b7f4e487b7100000000000000000000000000000000000000000000000000000000600052604160045260246000fd5b6000601f19601f8301169050919050565b7f546865206c6f636174696f6e206f6620746865207265636f726420697320656d60008201527f7074792e00000000000000000000000000000000000000000000000000000000602082015250565b7f54686174207472616e73616374696f6e494420616c726561647920657869737460008201527f732e000000000000000000000000000000000000000000000000000000000000602082015250565b7f546861742068617368206f66207363616e20697320616c72656164792072656760008201527f697374657265642e000000000000000000000000000000000000000000000000602082015250565b610daa81610b96565b8114610db557600080fd5b5056fea2646970667358221220b00d8648412f0c76e2244db0bdac6438948677ffe88a6ff85e6f105f1a48901364736f6c63430008040033",
    "linkReferences": {},
    "deployedLinkReferences": {}
}